{
  "contractName": "BingoGame",
  "abi": [
    {
      "inputs": [
        {
          "internalType": "contract IERC20",
          "name": "_USDTAddress",
          "type": "address"
        }
      ],
      "stateMutability": "nonpayable",
      "type": "constructor"
    },
    {
      "inputs": [],
      "name": "BingoGame__GameWasStarted",
      "type": "error"
    },
    {
      "inputs": [],
      "name": "BingoGame__NotOwner",
      "type": "error"
    },
    {
      "inputs": [],
      "name": "BingoGame__OverAllowanceUSDT",
      "type": "error"
    },
    {
      "inputs": [],
      "name": "BingoGame__TooFewPlayer",
      "type": "error"
    },
    {
      "inputs": [],
      "name": "BingoGame__TransferError",
      "type": "error"
    },
    {
      "anonymous": false,
      "inputs": [
        {
          "indexed": false,
          "internalType": "string",
          "name": "roomId",
          "type": "string"
        },
        {
          "indexed": false,
          "internalType": "uint256",
          "name": "depositAmount",
          "type": "uint256"
        },
        {
          "indexed": false,
          "internalType": "uint256",
          "name": "timestamp",
          "type": "uint256"
        }
      ],
      "name": "NewRoomCreated",
      "type": "event"
    },
    {
      "anonymous": false,
      "inputs": [
        {
          "indexed": false,
          "internalType": "string",
          "name": "roomId",
          "type": "string"
        },
        {
          "indexed": false,
          "internalType": "address",
          "name": "winner",
          "type": "address"
        },
        {
          "indexed": false,
          "internalType": "uint256",
          "name": "depositAmount",
          "type": "uint256"
        },
        {
          "indexed": false,
          "internalType": "uint256",
          "name": "players",
          "type": "uint256"
        }
      ],
      "name": "RoomEnd",
      "type": "event"
    },
    {
      "anonymous": false,
      "inputs": [
        {
          "indexed": false,
          "internalType": "string",
          "name": "roomId",
          "type": "string"
        },
        {
          "indexed": false,
          "internalType": "uint256",
          "name": "players",
          "type": "uint256"
        },
        {
          "indexed": false,
          "internalType": "uint256",
          "name": "depositAmount",
          "type": "uint256"
        }
      ],
      "name": "RoomStart",
      "type": "event"
    },
    {
      "inputs": [],
      "name": "owner",
      "outputs": [
        {
          "internalType": "address",
          "name": "",
          "type": "address"
        }
      ],
      "stateMutability": "view",
      "type": "function"
    },
    {
      "inputs": [
        {
          "internalType": "bytes32",
          "name": "requestId",
          "type": "bytes32"
        },
        {
          "internalType": "uint256",
          "name": "randomness",
          "type": "uint256"
        }
      ],
      "name": "rawFulfillRandomness",
      "outputs": [],
      "stateMutability": "nonpayable",
      "type": "function"
    },
    {
      "inputs": [
        {
          "internalType": "string",
          "name": "_roomId",
          "type": "string"
        },
        {
          "internalType": "uint256",
          "name": "_depositAmount",
          "type": "uint256"
        }
      ],
      "name": "createRoom",
      "outputs": [],
      "stateMutability": "nonpayable",
      "type": "function"
    },
    {
      "inputs": [
        {
          "internalType": "string",
          "name": "_roomId",
          "type": "string"
        }
      ],
      "name": "joinRoom",
      "outputs": [],
      "stateMutability": "nonpayable",
      "type": "function"
    },
    {
      "inputs": [
        {
          "internalType": "string",
          "name": "_roomId",
          "type": "string"
        }
      ],
      "name": "startRoom",
      "outputs": [],
      "stateMutability": "nonpayable",
      "type": "function"
    },
    {
      "inputs": [
        {
          "internalType": "uint256",
          "name": "more",
          "type": "uint256"
        }
      ],
      "name": "generateRandomNum",
      "outputs": [
        {
          "internalType": "uint256",
          "name": "",
          "type": "uint256"
        }
      ],
      "stateMutability": "view",
      "type": "function"
    },
    {
      "inputs": [
        {
          "internalType": "string",
          "name": "_roomId",
          "type": "string"
        },
        {
          "internalType": "address",
          "name": "_winner",
          "type": "address"
        }
      ],
      "name": "payWinner",
      "outputs": [],
      "stateMutability": "nonpayable",
      "type": "function"
    }
  ],
  "bytecode": "0x60c06040523480156200001157600080fd5b5060405162001886380380620018868339818101604052810190620000379190620001d2565b73a555fc018435bef5a13c6c6870a9d4c11dec329c7384b9b910527ad5c03a9ca831909e21e236ea7b068173ffffffffffffffffffffffffffffffffffffffff1660a08173ffffffffffffffffffffffffffffffffffffffff16815250508073ffffffffffffffffffffffffffffffffffffffff1660808173ffffffffffffffffffffffffffffffffffffffff1681525050505080600360006101000a81548173ffffffffffffffffffffffffffffffffffffffff021916908373ffffffffffffffffffffffffffffffffffffffff16021790555033600260006101000a81548173ffffffffffffffffffffffffffffffffffffffff021916908373ffffffffffffffffffffffffffffffffffffffff1602179055505062000204565b600080fd5b600073ffffffffffffffffffffffffffffffffffffffff82169050919050565b6000620001868262000159565b9050919050565b60006200019a8262000179565b9050919050565b620001ac816200018d565b8114620001b857600080fd5b50565b600081519050620001cc81620001a1565b92915050565b600060208284031215620001eb57620001ea62000154565b5b6000620001fb84828501620001bb565b91505092915050565b60805160a05161165f62000227600039600061085f01526000505061165f6000f3fe608060405234801561001057600080fd5b506004361061007d5760003560e01c806380d2f8e41161005b57806380d2f8e4146100ea5780638da5cb5b1461010657806394985ddd14610124578063e61e6b47146101405761007d565b806325d0d8a3146100825780632db4f279146100b257806370f08836146100ce575b600080fd5b61009c60048036038101906100979190610dc2565b61015c565b6040516100a99190610dfe565b60405180910390f35b6100cc60048036038101906100c79190610f5f565b610232565b005b6100e860048036038101906100e39190610fbb565b6103ef565b005b61010460048036038101906100ff9190611062565b610541565b005b61010e610837565b60405161011b91906110cd565b60405180910390f35b61013e6004803603810190610139919061111e565b61085d565b005b61015a60048036038101906101559190610fbb565b6108f9565b005b6000600260009054906101000a900473ffffffffffffffffffffffffffffffffffffffff1673ffffffffffffffffffffffffffffffffffffffff163373ffffffffffffffffffffffffffffffffffffffff16146101e5576040517faa2d893200000000000000000000000000000000000000000000000000000000815260040160405180910390fd5b6000436001544233866040516020016102029594939291906111c7565b6040516020818303038152906040528051906020012060001c905060638161022a9190611255565b915050919050565b600260009054906101000a900473ffffffffffffffffffffffffffffffffffffffff1673ffffffffffffffffffffffffffffffffffffffff163373ffffffffffffffffffffffffffffffffffffffff16146102b9576040517faa2d893200000000000000000000000000000000000000000000000000000000815260040160405180910390fd5b60008067ffffffffffffffff8111156102d5576102d4610e34565b5b6040519080825280602002602001820160405280156103035781602001602082028036833780820191505090505b50905060405180608001604052808481526020018281526020018381526020016000151581525060048460405161033a9190611300565b90815260200160405180910390206000820151816000019080519060200190610364929190610bea565b506020820151816001019080519060200190610381929190610c70565b506040820151816002015560608201518160030160006101000a81548160ff0219169083151502179055509050507fd4727d064e8bf1f191c3b1ff59a27c180230410363743c5355ced6c3411a4fcc8383426040516103e293929190611361565b60405180910390a1505050565b600260009054906101000a900473ffffffffffffffffffffffffffffffffffffffff1673ffffffffffffffffffffffffffffffffffffffff163373ffffffffffffffffffffffffffffffffffffffff1614610476576040517faa2d893200000000000000000000000000000000000000000000000000000000815260040160405180910390fd5b60006004826040516104889190611300565b908152602001604051809103902090506002816001018054905010156104da576040517faaf22f7000000000000000000000000000000000000000000000000000000000815260040160405180910390fd5b60018160030160006101000a81548160ff0219169083151502179055507f04f112d4544bfaf42016fee63e0786ad77c757cb6dc5dc92234891d0413bbdd6828260010180549050836002015460405161053593929190611361565b60405180910390a15050565b600260009054906101000a900473ffffffffffffffffffffffffffffffffffffffff1673ffffffffffffffffffffffffffffffffffffffff163373ffffffffffffffffffffffffffffffffffffffff16146105c8576040517faa2d893200000000000000000000000000000000000000000000000000000000815260040160405180910390fd5b60006004836040516105da9190611300565b9081526020016040518091039020604051806080016040529081600082018054610603906113ce565b80601f016020809104026020016040519081016040528092919081815260200182805461062f906113ce565b801561067c5780601f106106515761010080835404028352916020019161067c565b820191906000526020600020905b81548152906001019060200180831161065f57829003601f168201915b505050505081526020016001820180548060200260200160405190810160405280929190818152602001828054801561070a57602002820191906000526020600020905b8160009054906101000a900473ffffffffffffffffffffffffffffffffffffffff1673ffffffffffffffffffffffffffffffffffffffff16815260200190600101908083116106c0575b50505050508152602001600282015481526020016003820160009054906101000a900460ff161515151581525050905060048360405161074a9190611300565b9081526020016040518091039020600080820160006107699190610cfa565b6001820160006107799190610d3a565b60028201600090556003820160006101000a81549060ff02191690555050600560008373ffffffffffffffffffffffffffffffffffffffff1673ffffffffffffffffffffffffffffffffffffffff16815260200190815260200160002060008154809291906107e79061142f565b91905055507f07a5bb4a8472dbb68ad4e62e9c8a7f0a2595bb94a8eae3bcb82498ada1c4a86e8383836040015184602001515160405161082a9493929190611478565b60405180910390a1505050565b600260009054906101000a900473ffffffffffffffffffffffffffffffffffffffff1681565b7f000000000000000000000000000000000000000000000000000000000000000073ffffffffffffffffffffffffffffffffffffffff163373ffffffffffffffffffffffffffffffffffffffff16146108eb576040517f08c379a00000000000000000000000000000000000000000000000000000000081526004016108e290611510565b60405180910390fd5b6108f58282610bdf565b5050565b6004816040516109099190611300565b908152602001604051809103902060030160009054906101000a900460ff161561095f576040517f0b3d9ec600000000000000000000000000000000000000000000000000000000815260040160405180910390fd5b6000600360009054906101000a900473ffffffffffffffffffffffffffffffffffffffff1673ffffffffffffffffffffffffffffffffffffffff1663dd62ed3e33306040518363ffffffff1660e01b81526004016109be929190611530565b602060405180830381865afa1580156109db573d6000803e3d6000fd5b505050506040513d601f19601f820116820180604052508101906109ff919061156e565b9050600482604051610a119190611300565b908152602001604051809103902060020154811015610a5c576040517fb85414fb00000000000000000000000000000000000000000000000000000000815260040160405180910390fd5b6000600360009054906101000a900473ffffffffffffffffffffffffffffffffffffffff1673ffffffffffffffffffffffffffffffffffffffff1663a9059cbb30600486604051610aad9190611300565b9081526020016040518091039020600201546040518363ffffffff1660e01b8152600401610adc92919061159b565b6020604051808303816000875af1158015610afb573d6000803e3d6000fd5b505050506040513d601f19601f82011682018060405250810190610b1f91906115fc565b905080610b58576040517feacd852e00000000000000000000000000000000000000000000000000000000815260040160405180910390fd5b600483604051610b689190611300565b9081526020016040518091039020600101339080600181540180825580915050600190039060005260206000200160009091909190916101000a81548173ffffffffffffffffffffffffffffffffffffffff021916908373ffffffffffffffffffffffffffffffffffffffff160217905550505050565b806001819055505050565b828054610bf6906113ce565b90600052602060002090601f016020900481019282610c185760008555610c5f565b82601f10610c3157805160ff1916838001178555610c5f565b82800160010185558215610c5f579182015b82811115610c5e578251825591602001919060010190610c43565b5b509050610c6c9190610d5b565b5090565b828054828255906000526020600020908101928215610ce9579160200282015b82811115610ce85782518260006101000a81548173ffffffffffffffffffffffffffffffffffffffff021916908373ffffffffffffffffffffffffffffffffffffffff16021790555091602001919060010190610c90565b5b509050610cf69190610d5b565b5090565b508054610d06906113ce565b6000825580601f10610d185750610d37565b601f016020900490600052602060002090810190610d369190610d5b565b5b50565b5080546000825590600052602060002090810190610d589190610d5b565b50565b5b80821115610d74576000816000905550600101610d5c565b5090565b6000604051905090565b600080fd5b600080fd5b6000819050919050565b610d9f81610d8c565b8114610daa57600080fd5b50565b600081359050610dbc81610d96565b92915050565b600060208284031215610dd857610dd7610d82565b5b6000610de684828501610dad565b91505092915050565b610df881610d8c565b82525050565b6000602082019050610e136000830184610def565b92915050565b600080fd5b600080fd5b6000601f19601f8301169050919050565b7f4e487b7100000000000000000000000000000000000000000000000000000000600052604160045260246000fd5b610e6c82610e23565b810181811067ffffffffffffffff82111715610e8b57610e8a610e34565b5b80604052505050565b6000610e9e610d78565b9050610eaa8282610e63565b919050565b600067ffffffffffffffff821115610eca57610ec9610e34565b5b610ed382610e23565b9050602081019050919050565b82818337600083830152505050565b6000610f02610efd84610eaf565b610e94565b905082815260208101848484011115610f1e57610f1d610e1e565b5b610f29848285610ee0565b509392505050565b600082601f830112610f4657610f45610e19565b5b8135610f56848260208601610eef565b91505092915050565b60008060408385031215610f7657610f75610d82565b5b600083013567ffffffffffffffff811115610f9457610f93610d87565b5b610fa085828601610f31565b9250506020610fb185828601610dad565b9150509250929050565b600060208284031215610fd157610fd0610d82565b5b600082013567ffffffffffffffff811115610fef57610fee610d87565b5b610ffb84828501610f31565b91505092915050565b600073ffffffffffffffffffffffffffffffffffffffff82169050919050565b600061102f82611004565b9050919050565b61103f81611024565b811461104a57600080fd5b50565b60008135905061105c81611036565b92915050565b6000806040838503121561107957611078610d82565b5b600083013567ffffffffffffffff81111561109757611096610d87565b5b6110a385828601610f31565b92505060206110b48582860161104d565b9150509250929050565b6110c781611024565b82525050565b60006020820190506110e260008301846110be565b92915050565b6000819050919050565b6110fb816110e8565b811461110657600080fd5b50565b600081359050611118816110f2565b92915050565b6000806040838503121561113557611134610d82565b5b600061114385828601611109565b925050602061115485828601610dad565b9150509250929050565b6000819050919050565b61117961117482610d8c565b61115e565b82525050565b60008160601b9050919050565b60006111978261117f565b9050919050565b60006111a98261118c565b9050919050565b6111c16111bc82611024565b61119e565b82525050565b60006111d38288611168565b6020820191506111e38287611168565b6020820191506111f38286611168565b60208201915061120382856111b0565b6014820191506112138284611168565b6020820191508190509695505050505050565b7f4e487b7100000000000000000000000000000000000000000000000000000000600052601260045260246000fd5b600061126082610d8c565b915061126b83610d8c565b92508261127b5761127a611226565b5b828206905092915050565b600081519050919050565b600081905092915050565b60005b838110156112ba57808201518184015260208101905061129f565b838111156112c9576000848401525b50505050565b60006112da82611286565b6112e48185611291565b93506112f481856020860161129c565b80840191505092915050565b600061130c82846112cf565b915081905092915050565b600082825260208201905092915050565b600061133382611286565b61133d8185611317565b935061134d81856020860161129c565b61135681610e23565b840191505092915050565b6000606082019050818103600083015261137b8186611328565b905061138a6020830185610def565b6113976040830184610def565b949350505050565b7f4e487b7100000000000000000000000000000000000000000000000000000000600052602260045260246000fd5b600060028204905060018216806113e657607f821691505b602082108114156113fa576113f961139f565b5b50919050565b7f4e487b7100000000000000000000000000000000000000000000000000000000600052601160045260246000fd5b600061143a82610d8c565b91507fffffffffffffffffffffffffffffffffffffffffffffffffffffffffffffffff82141561146d5761146c611400565b5b600182019050919050565b600060808201905081810360008301526114928187611328565b90506114a160208301866110be565b6114ae6040830185610def565b6114bb6060830184610def565b95945050505050565b7f4f6e6c7920565246436f6f7264696e61746f722063616e2066756c66696c6c00600082015250565b60006114fa601f83611317565b9150611505826114c4565b602082019050919050565b60006020820190508181036000830152611529816114ed565b9050919050565b600060408201905061154560008301856110be565b61155260208301846110be565b9392505050565b60008151905061156881610d96565b92915050565b60006020828403121561158457611583610d82565b5b600061159284828501611559565b91505092915050565b60006040820190506115b060008301856110be565b6115bd6020830184610def565b9392505050565b60008115159050919050565b6115d9816115c4565b81146115e457600080fd5b50565b6000815190506115f6816115d0565b92915050565b60006020828403121561161257611611610d82565b5b6000611620848285016115e7565b9150509291505056fea2646970667358221220e2cef808a8210300ddc2ade8440bfcc8c5290f9d4f2c08a076c538053db7fc2d64736f6c634300080b0033",
  "immutableReferences": {
    "75": [
      {
        "length": 32,
        "start": 2143
      }
    ]
  },
  "source": "// SPDX-License-Identifier: MIT\r\npragma solidity ^0.8.11;\r\nimport \"@chainlink/contracts/src/v0.8/VRFConsumerBase.sol\";\r\nimport \"@openzeppelin/contracts/token/ERC20/IERC20.sol\";\r\n\r\nerror BingoGame__NotValidTarget();\r\nerror BingoGame__NotOwner();\r\nerror BingoGame__OverAllowanceUSDT();\r\nerror BingoGame__TransferError();\r\nerror BingoGame__TooFewPlayer();\r\nerror BingoGame__GameWasStarted();\r\n\r\ncontract BingoGame is VRFConsumerBase {\r\n    bytes32 internal constant _keyHash =\r\n        0xcaf3c3727e033261d383b315559476f48034c13b18f8cafed4d871abe5049186;\r\n    uint256 internal constant _fee = 0.1 * 10**18; // MAINNET CHANGE IT TO 0.2 LINK\r\n    uint256 _randomResult;\r\n    address public owner;\r\n    IERC20 USDTAddress;\r\n\r\n    /**\r\n     * BNB Chain Testnet\r\n     * VRF coordinator 0xa555fC018435bef5A13C6c6870a9d4C11DEC329C\r\n     * LINK 0x84b9B910527Ad5C03A9Ca831909E21e236EA7b06\r\n     * keyHash 0xcaf3c3727e033261d383b315559476f48034c13b18f8cafed4d871abe5049186\r\n     * More information https://docs.chain.link/docs/vrf-contracts/v1/\r\n     */\r\n\r\n    constructor(IERC20 _USDTAddress)\r\n        VRFConsumerBase(\r\n            0xa555fC018435bef5A13C6c6870a9d4C11DEC329C, // Coordinator\r\n            0x84b9B910527Ad5C03A9Ca831909E21e236EA7b06 // link\r\n        )\r\n    {\r\n        USDTAddress = _USDTAddress;\r\n        owner = msg.sender;\r\n    }\r\n\r\n    struct Room {\r\n        string roomId;\r\n        address[] players;\r\n        uint256 depositAmount;\r\n        bool isStart;\r\n    }\r\n\r\n    mapping(string => Room) idToRoom;\r\n    mapping(address => uint256) winnerToReward;\r\n    event NewRoomCreated(\r\n        string roomId,\r\n        uint256 depositAmount,\r\n        uint256 timestamp\r\n    );\r\n\r\n    event RoomStart(string roomId, uint256 players, uint256 depositAmount);\r\n\r\n    event RoomEnd(\r\n        string roomId,\r\n        address winner,\r\n        uint256 depositAmount,\r\n        uint256 players\r\n    );\r\n\r\n    function getRandomNumber() internal returns (bytes32 requestId) {\r\n        require(\r\n            LINK.balanceOf(address(this)) >= _fee,\r\n            \"Not enough fee LINK in contract\"\r\n        );\r\n        return requestRandomness(_keyHash, _fee);\r\n    }\r\n\r\n    function fulfillRandomness(bytes32, uint256 randomness) internal override {\r\n        _randomResult = randomness;\r\n    }\r\n\r\n    function createRoom(string memory _roomId, uint256 _depositAmount)\r\n        external\r\n        onlyOwner\r\n    {\r\n        address[] memory newRoomPlayer = new address[](0);\r\n        idToRoom[_roomId] = Room(_roomId, newRoomPlayer, _depositAmount, false);\r\n        emit NewRoomCreated(_roomId, _depositAmount, block.timestamp);\r\n    }\r\n\r\n    function joinRoom(string memory _roomId) external {\r\n        if (idToRoom[_roomId].isStart) revert BingoGame__GameWasStarted();\r\n        uint256 allowance = USDTAddress.allowance(msg.sender, address(this));\r\n        if (allowance < idToRoom[_roomId].depositAmount)\r\n            revert BingoGame__OverAllowanceUSDT();\r\n\r\n        bool isSuccess = USDTAddress.transfer(\r\n            address(this),\r\n            idToRoom[_roomId].depositAmount\r\n        );\r\n        if (!isSuccess) revert BingoGame__TransferError();\r\n\r\n        idToRoom[_roomId].players.push(msg.sender);\r\n    }\r\n\r\n    function startRoom(string memory _roomId) external onlyOwner {\r\n        Room storage currentRoom = idToRoom[_roomId];\r\n        if (currentRoom.players.length < 2) revert BingoGame__TooFewPlayer();\r\n\r\n        currentRoom.isStart = true;\r\n        emit RoomStart(\r\n            _roomId,\r\n            currentRoom.players.length,\r\n            currentRoom.depositAmount\r\n        );\r\n    }\r\n\r\n    function generateRandomNum(uint256 more)\r\n        external\r\n        view\r\n        onlyOwner\r\n        returns (uint256)\r\n    {\r\n        uint256 randomNumber = uint256(\r\n            keccak256(\r\n                abi.encodePacked(\r\n                    block.number,\r\n                    _randomResult,\r\n                    block.timestamp,\r\n                    msg.sender,\r\n                    more\r\n                )\r\n            )\r\n        );\r\n        return randomNumber % 99;\r\n    }\r\n\r\n    function payWinner(string memory _roomId, address _winner)\r\n        external\r\n        onlyOwner\r\n    {\r\n        Room memory currentRoom = idToRoom[_roomId];\r\n        delete idToRoom[_roomId];\r\n        winnerToReward[_winner]++;\r\n        emit RoomEnd(\r\n            _roomId,\r\n            _winner,\r\n            currentRoom.depositAmount,\r\n            currentRoom.players.length\r\n        );\r\n    }\r\n\r\n    modifier onlyOwner() {\r\n        if (msg.sender != owner) revert BingoGame__NotOwner();\r\n        _;\r\n    }\r\n}\r\n",
  "sourcePath": "C:\\Users\\admin\\OneDrive - Thang Long University\\Desktop\\TemplateBlockchain\\contracts\\BingoGame.sol",
  "compiler": {
    "name": "solc",
    "version": "0.8.11+commit.d7f03943.Emscripten.clang"
  },
  "schemaVersion": "3.4.7",
  "updatedAt": "2022-08-30T17:02:21.708Z",
  "devdoc": {
    "kind": "dev",
    "methods": {},
    "version": 1
  },
  "userdoc": {
    "kind": "user",
    "methods": {
      "constructor": {
        "notice": "BNB Chain Testnet VRF coordinator 0xa555fC018435bef5A13C6c6870a9d4C11DEC329C LINK 0x84b9B910527Ad5C03A9Ca831909E21e236EA7b06 keyHash 0xcaf3c3727e033261d383b315559476f48034c13b18f8cafed4d871abe5049186 More information https://docs.chain.link/docs/vrf-contracts/v1/"
      }
    },
    "version": 1
  }
}